{
  "contractName": "Spends",
  "abi": [
    {
      "anonymous": false,
      "inputs": [
        {
          "indexed": false,
          "internalType": "uint256",
          "name": "totalBeneficiaries",
          "type": "uint256"
        },
        {
          "indexed": false,
          "internalType": "uint256",
          "name": "totalPensionAmount",
          "type": "uint256"
        },
        {
          "indexed": false,
          "internalType": "string",
          "name": "seniorIds",
          "type": "string"
        },
        {
          "indexed": false,
          "internalType": "uint256",
          "name": "timestamp",
          "type": "uint256"
        }
      ],
      "name": "PensionStored",
      "type": "event"
    },
    {
      "inputs": [],
      "name": "pensionData",
      "outputs": [
        {
          "internalType": "uint256",
          "name": "totalBeneficiaries",
          "type": "uint256"
        },
        {
          "internalType": "uint256",
          "name": "totalPensionAmount",
          "type": "uint256"
        },
        {
          "internalType": "string",
          "name": "seniorIds",
          "type": "string"
        },
        {
          "internalType": "uint256",
          "name": "timestamp",
          "type": "uint256"
        }
      ],
      "stateMutability": "view",
      "type": "function",
      "constant": true
    },
    {
      "inputs": [
        {
          "internalType": "uint256",
          "name": "_totalBeneficiaries",
          "type": "uint256"
        },
        {
          "internalType": "uint256",
          "name": "_totalPensionAmount",
          "type": "uint256"
        },
        {
          "internalType": "string",
          "name": "_seniorIds",
          "type": "string"
        }
      ],
      "name": "storePensionData",
      "outputs": [],
      "stateMutability": "nonpayable",
      "type": "function"
    },
    {
      "inputs": [],
      "name": "getPensionData",
      "outputs": [
        {
          "internalType": "uint256",
          "name": "totalBeneficiaries",
          "type": "uint256"
        },
        {
          "internalType": "uint256",
          "name": "totalPensionAmount",
          "type": "uint256"
        },
        {
          "internalType": "string",
          "name": "seniorIds",
          "type": "string"
        },
        {
          "internalType": "uint256",
          "name": "timestamp",
          "type": "uint256"
        }
      ],
      "stateMutability": "view",
      "type": "function",
      "constant": true
    }
  ],
  "bytecode": "0x60808060405234610016576104f3908161001b8239f35b5f80fdfe604060808152600480361015610013575f80fd5b5f90813560e01c80631e5dfe741461030a5780639c72ce28146102d25763c4beb58b1461003e575f80fd5b346102ce5760603660031901126102ce578035926024908135916044359367ffffffffffffffff908186116102ca57366023870112156102ca5785810135958287116102b857845196602090601f199261009f8385601f850116018b610372565b818a52368783830101116102b457818b9288859301838d01378a010152855160808101818110868211176102a2579060609188528b81528883820152898882015201944286528a8a55600193888555895195861161029157505061010460025461033a565b601f811161022c575b508091601f8511600114610183575050918080899a959361017297957fd9b3c7ae6ae872284320d69ef2418a34ed4db40197c77d5aa7eaab2141a94e309b93610178575b501b915f199060031b1c1916176002555b5160035551938493429285610464565b0390a180f35b8a015192505f610151565b8493949291921660028a527f405787fa12a823e0f2b7631cc41b3ba8828b3321ca811111fa75cd3aa3bb5ace928a905b8282106102155750509183917fd9b3c7ae6ae872284320d69ef2418a34ed4db40197c77d5aa7eaab2141a94e309a9b9694610172989694106101fd575b5050811b01600255610162565b8901515f1960f88460031b161c191690555f806101f0565b808785968294968e015181550195019301906101b3565b60028a527f405787fa12a823e0f2b7631cc41b3ba8828b3321ca811111fa75cd3aa3bb5ace601f860160051c810191838710610287575b601f0160051c019084905b82811061027c57505061010d565b8b815501849061026e565b9091508190610263565b634e487b7160e01b8b526041905289fd5b634e487b7160e01b8b5260418552868bfd5b8a80fd5b634e487b7160e01b8852604182528388fd5b8680fd5b5080fd5b5050346103075780600319360112610307575461030360015492600354906102f86103a8565b905194859485610464565b0390f35b80fd5b505034610307578060031936011261030757546103036001549261032c6103a8565b600354915194859485610464565b90600182811c92168015610368575b602083101461035457565b634e487b7160e01b5f52602260045260245ffd5b91607f1691610349565b90601f8019910116810190811067ffffffffffffffff82111761039457604052565b634e487b7160e01b5f52604160045260245ffd5b604051905f82600254916103bb8361033a565b8083529260019081811690811561044257506001146103e4575b506103e292500383610372565b565b60025f90815291507f405787fa12a823e0f2b7631cc41b3ba8828b3321ca811111fa75cd3aa3bb5ace5b84831061042757506103e293505081016020015f6103d5565b81935090816020925483858a0101520191019091859261040e565b9050602092506103e294915060ff191682840152151560051b8201015f6103d5565b9493929190855260209081860152608060408601528151918260808701525f5b8381106104a95750505060a0815f8260609488010152601f8019910116850101930152565b81810183015187820160a00152820161048456fea26469706673582212204c4be6f80f4a172b1d96ea83507e628b7d2920cfa96655462ba0c0d3cfcc3a4264736f6c63430008140033",
  "immutableReferences": {},
  "source": "// SPDX-License-Identifier: MIT\r\npragma solidity ^0.8.20;\r\n\r\ncontract Spends {\r\n    struct PensionData {\r\n        uint256 totalBeneficiaries;\r\n        uint256 totalPensionAmount;\r\n        string seniorIds;\r\n        uint256 timestamp;\r\n    }\r\n\r\n    PensionData public pensionData;\r\n\r\n    event PensionStored(uint256 totalBeneficiaries, uint256 totalPensionAmount, string seniorIds, uint256 timestamp);\r\n\r\n    function storePensionData(uint256 _totalBeneficiaries, uint256 _totalPensionAmount, string memory _seniorIds) public {\r\n        pensionData = PensionData(_totalBeneficiaries, _totalPensionAmount, _seniorIds, block.timestamp);\r\n        emit PensionStored(_totalBeneficiaries, _totalPensionAmount, _seniorIds, block.timestamp);\r\n    }\r\n\r\n    function getPensionData() public view returns (uint256 totalBeneficiaries, uint256 totalPensionAmount, string memory seniorIds, uint256 timestamp) {\r\n        return (pensionData.totalBeneficiaries, pensionData.totalPensionAmount, pensionData.seniorIds, pensionData.timestamp);\r\n    }\r\n}\r\n",
  "sourcePath": "C:\\Users\\krist\\Desktop\\spends1\\spends\\contracts\\Spends.sol",
  "compiler": {
    "name": "solc",
    "version": "0.8.20+commit.a1b79de6.Emscripten.clang"
  },
  "schemaVersion": "3.4.16",
  "updatedAt": "2025-03-18T18:01:17.569Z",
  "networkType": "ethereum",
  "devdoc": {
    "kind": "dev",
    "methods": {},
    "version": 1
  },
  "userdoc": {
    "kind": "user",
    "methods": {},
    "version": 1
  }
}